:02000002D0002C
:1040000000400D0090580D00000006000C00050156
:08401000040115050000000089
:10401800B0540D0009480A49884208B505D0094A34
:10402800824202D0121A01F0FBF90748074A002120
:10403800121A01F000FA014808BD00BF4CE3032042
:1040480000580D00B4E30320B4E30320F0E7032095
:1040580070B500F0ABFC074C074BE41AA408002528
:104068001E46A54204D056F8253098470135F8E792
:1040780070BD00BF00580D00C4570D0000F0F2B825
:1040880008B500F045F9BDE8084000F05DBC00F057
:1040980039BB00F037BB0078B0FA80F040097047B0
:1040A80001230370704703681847012A02D0022AC7
:1040B80002D004E0016002E00B6800B10360002058
:1040C800704708B50121022000F0D7FF4FF4FA70BD
:1040D80000F004FC0021022000F0CFFF4FF4FA703A
:1040E80000F0FCFBEEE708B50121032000F0C5FF56
:1040F800C82000F0F3FB0021032000F0BEFFC82019
:1041080000F0ECFBF0E710B5012303748368044664
:104118000BB1C06806E0006828B183680BB901F0EC
:1041280026F8C3689847012363740020BDE810404F
:1041380000F0A4B910B58368044613B10322014600
:104148009847204610BD38B5044670B1056835B1AA
:104158002846FFF7EFFF1021284600F0F7FF20461A
:104168001421BDE8384000F0F1BF38BD10B5036830
:104178000446BBB1586800F051F978B923685A7CF5
:1041880012B9586800F05AF92368586800F05EF9C7
:1041980020680023236028B1FFF7D5FF206808B105
:1041A800FFF7D1FF204610BD2DE9FF4106460F4617
:1041B80014202A491546984600F0CAFF044630B133
:1041C80000230374036043608360C36043743460F6
:1041D800002C39D02149102000F0BAFF0346B0B1B5
:1041E8000022826095E8030002AA82E8030093E8AF
:1041F800030085E8030092E8030083E80300996858
:10420800AA68A9609A60EA68D968E960DA602568EE
:10421800236035B12846FFF78DFF1021284600F0AE
:1042280095FF306803687BB10A9B42468DE8090018
:1042380039460B4B043000F0E9F828B933681B7C89
:1042480043B900F0F3F8F9E730680023336008B1A8
:10425800FFF779FF304604B0BDE8F0815C570D00E8
:104268000F410D0030B5012189B0022000F0F4FEA5
:104278000121032000F0F0FE1D4B04934FF440632E
:10428800009304AA02231B4D1B4C1C49079503A845
:104298000694FFF789FF0023039A0393184B1868C5
:1042A8001A6008B1FFF74FFF03A8FFF75FFF04A8E4
:1042B800FFF740FF134B04934FF44063009304AAA5
:1042C80002231149079503A80694FFF76DFF002301
:1042D800039A03930D4B18681A6008B1FFF733FF70
:1042E80003A8FFF743FF04A8FFF724FF09B030BD78
:1042F800CB400D00AF400D00B3400D00C4540D007D
:10430800B8E30320EF400D00CC540D00BCE30320BC
:104318007047000070B500F039F80F4B0F4E104D84
:1043280000244FF6FF721C705C809A80032000F016
:104338005DF92146012000F069F90A48324629460C
:10434800046000F0F5FE0848046032462946BDE8DE
:10435800704000F0EDBE00BFC0E30320B4E30320CB
:1043680075410D00B8E30320BCE3032008B5024BF8
:104378001B689B68019308BD6802030008B5024BDF
:104388001B68DB68019308BD6802030008B5024B8F
:104398001B681B68019308BD2C02030008B5024B7B
:1043A8001B689B68019308BD2C02030008B5024BEB
:1043B8001B68DB68019308BD2C02030008B5024B9B
:1043C8001B681B69019308BD2C02030008B5024B4A
:1043D8001B68DB69019308BD3002030008B5024B76
:1043E8001B681B6A019308BD3002030008B5024B25
:1043F8001B685B68019308BD1802030008B5024BEF
:104408001B685B69019308BD1802030008B5024BDD
:104418001B685B68019308BD4802030008B5024B9E
:104428001B689B68019308BD4802030008B5024B4E
:104438001B68DB68019308BD4802030008B5024BFE
:104448001B681B69019308BD4802030008B5024BAD
:104458001B685B69019308BD4802030008B5024B5D
:104468001B681B6B019308BD4802030008B5024B8B
:104478001B685B6C019308BD4802030008B5024B3A
:104488001B68DB6E019308BD4802030008B5024BA8
:104498001B685B69019308BD6402030008B5024B01
:1044A8001B681B68019308BD3C02030008B5024B5A
:1044B8001B68DB68019308BD3C02030008B5024B8A
:1044C8001B681B69019308BD3C02030008B5024B39
:1044D8001B685B69019308BD3C02030008B5024BE9
:1044E8001B689B69019308BD3C02030008B5024B99
:1044F8001B68DB69019308BD3C02030008B5024B49
:104508001B681B6A019308BD3C02030008B5024BF7
:104518001B689B6A019308BD3C02030008B5024B67
:104528001B681B6A019308BD2802030008B5024BEB
:104538001B685B6A019308BD2802030008B5024B9B
:104548001B689B6A019308BD2802030008B5024B4B
:104558001B68DB6A019308BD2802030008B5024BFB
:104568001B681B6B019308BD2802030008B5024BAA
:104578001B685B6B019308BD2802030008B5024B5A
:104588001B681B6C019308BD2802030008B5024B89
:104598001B681B68019308BD4C02030008B5024B59
:1045A8001B681B69019308BD4C02030008B5024B48
:1045B8001B685B69019308BD4C02030008B5024BF8
:1045C8001B689B69019308BD4C02030008B5024BA8
:1045D8001B68DB69019308BD4C02030008B5024B58
:1045E8001B681B6A019308BD4C02030008B5024B07
:1045F8001B685B68019308BD2002030008B5024BE5
:104608001B685B69019308BD2002030008B5024BD3
:104618001B68DB6A019308BD2002030008B5034B41
:104628001B68D3F88830019308BD000020020300FE
:1046380008B5034B1B68D3F89430019308BD0000FC
:104648002002030008B5024B1B685B68019308BD94
:104658004002030008B5024B1B689B68019308BD24
:104668004002030008B5024B1B68DB68019308BDD4
:104678004002030008B5024B1B681B69019308BD83
:104688004002030008B5024B1B685B69019308BD33
:104698004002030008B5024B1B689B69019308BDE3
:1046A8004002030008B5024B1B68DB69019308BD93
:1046B8004002030008B5024B1B681B6A019308BD42
:1046C8004002030008B5024B1B681B6B019308BD31
:1046D8004002030008B5024B1B685B6B019308BDE1
:1046E8004002030008B5024B1B68DB6B019308BD51
:1046F8004402030008B5024B1B681B68019308BD00
:104708001C02030008B5024B1B685B68019308BDD7
:104718001C02030008B5024B1B68DB6A019308BD45
:104728001C020300002211464068FFF7C3BF0022A5
:1047380011464068FFF7CEBF00224068FFF7C2BFAE
:10474800002281F001014068FFF7ACBF00231A4640
:1047580019464068FFF79EBF00231A46194640686D
:10476800FFF790BF002211464068FFF783BF002281
:1047780011464068FFF76EBF002202214068FFF72C
:1047880071BF00231A464068FFF75CBF024B032243
:104798005A60024A1A607047C8E30320DC540D00CF
:1047A800704710B51021044600F0D0FC204610BD1B
:1047B80070B5084B0360044600250E4640F80C5FB0
:1047C800FFF74CFE30462671FFF700FEA560204635
:1047D80070BD00BF10550D000079FFF7FFBD000048
:1047E800044B00204FF6FF72187058809A80FFF72C
:1047F800FDBE00BFD0E30320024800230360FFF79B
:1048080035BE00BFD8E30320F8B506460D468F181D
:104818000024BD420CD0336815F8011B9B68304654
:104828009847002801DB0444F3E7002C08BF04463E
:104838002046F8BD70B505460C46084649B100F05B
:104848002BFE2B68024621462846DB68BDE87040EF
:10485800184770BD03689B68184730B58BB00B4686
:1048680000218DF82410012A98BF0A220DF1230493
:10487800B3FBF2F505FB123303F0FF03092B94BFDA
:1048880030333733DBB2214604F801392B46002D8B
:10489800EED1FFF7CFFF0BB030BD10B42AB90368D3
:1048A8005DF8044B9B68C9B21847D2B25DF8044B57
:1048B800FFF7D3BFFFF7F1BF014B024A1A607047F9
:1048C800DCE30320D0550D00024B1A68024B1A6036
:1048D800704700BF4CE30320E0E303200021FFF70B
:1048E8008DBE10B50446FFF725FC204610BD00001C
:1048F8000348044A04490023836000F019BC00BF40
:10490800E4E30320B4E30320EB480D0008B50C4BA7
:1049180033B100F035F903681B699847002809DCB2
:10492800084B63B100F0AEF903681B69984700288B
:1049380003DC08BDAFF30080F2E7AFF3008008BDE9
:10494800000000000000000008B5FFF7DFFFFFF7D8
:1049580055FD014B186008BD30E7032007B500235B
:1049680000931A466FF07701FFF762FE03B05DF817
:1049780004FB000007B543880A2B08D0502B09D147
:10498800094B1B683BB103B05DF804EB1847FFF710
:10499800E5FF06E0002300931A466FF07701FFF762
:1049A80047FE03B05DF804FBF4E3032010B5FFF7FE
:1049B8001DFD044600F048FD074B13B12046AFF338
:1049C800008000210448FFF78DFE00210348BDE860
:1049D8001040FFF723BE00BF000000007D490D0016
:1049E800704710B51821044600F0B0FB204610BDF2
:1049F800F0B5037D062B8DB00E4600F104074FF08D
:104A0800000402D000F1080518E00CAD394605F89D
:104A1800304D2F232A460A20FFF738FD284600F09C
:104A28003BFD33680246DB682946304698470FE06D
:104A380024B12E213046FFF70DFF044415F8011D5F
:104A48000A223046FFF736FFBD420444F0D1204623
:104A58000DB0F0BD10B5054B0446112240F8043BDB
:104A6800002100F0E8FC204610BD00BF2C560D00C8
:104A78000346074A10B543F8042B01F1100251F818
:104A8800044B43F8044B9142F9D10A781A7010BDCF
:104A98002C560D0010B59DF8084044EA032343EA5C
:104AA800024242EA016104234160037510BD37B533
:104AB8000D788B784A78C97800912946FFF7EAFF84
:104AC80003B030BD41747047704708B50021007CC1
:104AD800FFF774FD30EA200028BF4FF0FF3008BD13
:104AE80008B50121007CFFF769FD30EA200028BFE6
:104AF8004FF0FF3008BD08B5007CFFF757FD20EAEE
:104B0800E07008BD08B5007CFFF748FD20EAE070BA
:104B180008BD007CFFF762BD10B51421044600F003
:104B280015FB204610BD38B50446007C0D46FFF73E
:104B38003DFD002801DC607C28B12946207CFFF778
:104B480045FD20EAE07038BD10B5044600236360D7
:104B58004FF47A73A360054B236001230846217440
:104B680063741146FFF712FD204610BD40560D0034
:104B780010B514220446002100F05DFC204610BD4B
:104B880030B50E4D87B001A8FFF7F2FF296811F084
:104B9800010410D12846FFF77EFA60B101AA214628
:104BA8000748FFF7D1FF2846FFF77AFA054A064972
:104BB800034800F0BDFA024807B030BDF8E303200F
:104BC800FCE30320B4E30320D14A0D00704741748D
:104BD800704708B5007CFFF799FC20EAE07008BD33
:104BE80008B5007CFFF76AFC20EAE07008BD08B54C
:104BF800007CFFF773FC30EA200028BF4FF0FF303D
:104C080008BD08B5007CFFF761FC30EA200028BF2A
:104C18004FF0FF3008BD007CFFF768BC10B51421C9
:104C2800044600F093FA204610BD70B5457C044652
:104C38000E4625B9007CFFF769FC002805DD3146E2
:104C4800207CBDE87040FFF731BC284670BD0000ED
:104C580010B5044608461146002262604FF47A7285
:104C6800A260054A22600122207462741A46FFF786
:104C780015FC204610BD00BF70560D00007CFFF7E4
:104C88003DBC000038B50C4D296811F0010411D164
:104C98002846FFF700FA68B1084A094B0948214637
:104CA800FFF7D6FF2846FFF7FBF9074A07490548EB
:104CB80000F03EFA034838BDA8E40320ACE4032022
:104CC80024E4032010E40320B4E30320D54B0D00B3
:104CD8007047F8B5064615460C468F18BC4206D0F4
:104CE800336814F8011B9B6830469847F6E7284656
:104CF800F8BD0022007CFFF711BC0021007CFFF703
:104D080015BC0021007CFFF719BC0021007CFFF7CF
:104D18001DBC0021007CFFF721BC10B514210446FE
:104D280000F014FA204610BD10B504464FF47A730B
:104D38000846A3600021044B207461602360FFF7DC
:104D48001DFC204610BD00BFA0560D000021007CB0
:104D5800FFF70CBC002211464068FFF7ABBC0022ED
:104D680011464068FFF7B6BC00224068FFF7AABCAE
:104D7800002281F001014068FFF794BC00231A4625
:104D880019464068FFF786BC00231A461946406852
:104D9800FFF778BC002211464068FFF76BBC002281
:104DA80011464068FFF756BC002202214068FFF711
:104DB80059BC00231A464068FFF744BC10B1036889
:104DC8005B6818477047000038B50C4B0360044611
:104DD800D0F8CC0108B1FFF75CF9D4F8C45135B16B
:104DE8002846FFF7C3F90421284600F0AFF9A06868
:104DF80008B1FFF7E3FF204638BD00BFC8560D00D5
:104E080038B50D4C0D4B23600025022304F5E470E2
:104E18006360A560C4F8C451C4F8C851FFF726FB05
:104E2800074BC4F8CC5123602046064A0649BDE822
:104E3800384000F07DB900BF30E5032030570D0041
:104E4800C8560D00B4E30320D14D0D0000221146D1
:104E58004068FFF70FBC002211464068FFF72ABCE4
:104E6800002211464068FFF735BC00224068FFF772
:104E780029BC002281F001014068FFF713BC002320
:104E88001A4619464068FFF705BC00231A4619461A
:104E98004068FFF7F7BB002211464068FFF7DABB0E
:104EA800002202214068FFF7DDBB00231A46406854
:104EB800FFF7C8BB024B04225A60024A1A607047C7
:104EC80000E70320FC560D0000231A464068FFF750
:104ED800B9BB002202214068FFF7C4BB002211467B
:104EE8004068FFF7B7BB002211464068FFF7C2BB16
:104EF80000231A4619464068FFF7C4BB00231A4628
:104F080019464068FFF7C6BB002281F001014068DE
:104F1800FFF7C8BB00224068FFF7D4BB0022114648
:104F28004068FFF7D7BB002211464068FFF7C2BBB5
:104F38002DE9F043002495B016460D460746FFF7C5
:104F480089FD214620220CA8009400F074FA402321
:104F58000C9321466B460CAA3046FFF70FFA04461D
:104F6800002844D1024601216868FFF783FB02212B
:104F7800804622466868FFF77DFB009E81462146F1
:104F8800002E34D0002932D17368022B02D00A2BAC
:104F980009D02AE0B8F1000F27D0716938460431EA
:104FA800FFF785FD20E0B9F1000F1ED074691122CA
:104FB80001A800F040FA06238DF8143001AD04F181
:104FC80008031834186859682A4603C20833A342EC
:104FD8001546F7D101A906A807ADFFF749FD0FCD82
:104FE8003C1D0FC42B6823700121F669C8E700989F
:104FF800FFF7BCF9384615B0BDE8F083024B034A09
:105008001A6000225A60704708E7032030570D00E5
:1050180010B504460F48FFF7DFFB28B1A4F10B03D6
:10502800022B01D8002010BD00F062F8FFF78EFEB9
:1050380008B1012CF6D9FFF725FEFFF71FFE18B1BE
:10504800A4F10903012BEDD9232C8CBF00200120EA
:1050580010BD00BF10E70320232838B504460D46CD
:105068000AD8FF2908D0FFF7D3FF28B129462046E0
:10507800BDE83840FFF792B938BD38B504460D464B
:10508800FFF794F9FF2810D0062804D84D2323FAF7
:1050980000F0C30709D42046FFF7BAFF28B1294614
:1050A8002046BDE83840FFF789B938BD70B50C4CCB
:1050B8000C4E0D4D00212046FFF77AFB20460B4C85
:1050C8003246294600F034F801212046FFF770FBEC
:1050D800324629462046BDE8704000F029B800BF96
:1050E80010E70320B4E30320A9470D0020E70320BD
:1050F80038B50B4D296811F001040FD12846FEF789
:10510800CAFF58B121460748FFF70EFE2846FEF7AA
:10511800C7FF054A0549034800F00AF8014838BDA9
:1051280034E7032038E70320B4E30320D94C0D000B
:105138000B460146184600F065B90000024B186896
:10514800BFF35F8F704700BF4CE70320FEF79FBF98
:1051580010B5002814BF044601242046FFF7CAFAF8
:1051680020B9FFF7EBFF08B18047F6E710BD08B597
:10517800FFF7D0FA184B1A68D1075CBF01221A60F2
:10518800164B1A68D2075CBF01221A60144B1A68C2
:10519800D0075CBF01221A60124B1A68D1075CBFA6
:1051A80001221A60104B1A68D2075CBF01221A60EC
:1051B8000E4B1A68D0075CBF01221A600C4B1A68A4
:1051C800D1075CBF01221A600A4B1A68D2075CBF7C
:1051D80001221A60704700BF6CE7032068E70320CC
:1051E80064E7032060E703205CE7032058E7032017
:1051F80054E7032050E70320244B1A68D0075CBF0C
:1052080001221A60224B1A68D1075CBF01221A607A
:10521800204B1A68D2075CBF01221A601E4B1A681D
:10522800D0075CBF01221A601C4B1A68D1075CBF0B
:1052380001221A601A4B1A68D2075CBF01221A6051
:10524800184B1A68D0075CBF01221A60164B1A68FF
:10525800D1075CBF01221A60144B1A68D2075CBFE1
:1052680001221A60124B1A68D0075CBF01221A602B
:10527800104B1A68D1075CBF01221A600E4B1A68DE
:10528800D2075CBF01221A60704700BF9CE7032069
:1052980098E7032094E7032090E703208CE7032096
:1052A80088E7032084E7032080E703207CE70320C6
:1052B80078E7032074E7032070E70320244B1A687B
:1052C800D0075CBF01221A60224B1A68D1075CBF65
:1052D80001221A60204B1A68D2075CBF01221A60AB
:1052E8001E4B1A68D0075CBF01221A601C4B1A6853
:1052F800D1075CBF01221A601A4B1A68D2075CBF3B
:1053080001221A60184B1A68D0075CBF01221A6084
:10531800164B1A68D1075CBF01221A60144B1A6831
:10532800D2075CBF01221A60124B1A68D0075CBF13
:1053380001221A60104B1A68D1075CBF01221A605B
:105348000E4B1A68D2075CBF01221A60704700BF73
:10535800CCE70320C8E70320C4E70320C0E7032005
:10536800BCE70320B8E70320B4E70320B0E7032035
:10537800ACE70320A8E70320A4E70320A0E7032065
:10538800184B1A68D1075CBF01221A60164B1A68BD
:10539800D2075CBF01221A60144B1A68D0075CBFA1
:1053A80001221A60124B1A68D1075CBF01221A60E9
:1053B800104B1A68D2075CBF01221A600E4B1A689C
:1053C800D0075CBF01221A600C4B1A68D1075CBF7A
:1053D80001221A600A4B1A68D2075CBF01221A60C0
:1053E800704700BFECE70320E8E70320E4E7032069
:1053F800E0E70320DCE70320D8E70320D4E7032015
:10540800D0E7032010B5054C13462CB10A460146D7
:105418000220AFF3008010BD204610BD0000000040
:1054280010B5431E0A44914204D011F8014B03F809
:10543800014FF8E710BD02440346934202D003F837
:10544800011BFAE77047000038B5124B1C68A36BC4
:105458000546D3B91820FFF74DF943F20E33A06380
:1054680003804AF6CD33438041F2342383804EF2E1
:105478006D63C3804DF6EC630381052343810B23E1
:10548800838101220023C0E90423A36B00221D614C
:105498005A6138BDB0E30320034613F8012B002AF4
:1054A800FBD1181A013870471D400D0059400D00F6
:1054B80085400D0089400D00000000007468726589
:1054C8006164310074687265616432000000000034
:1054D800000000008B470D0081470D0077470D0045
:1054E8006D470D0061470D0055470D0049470D00F8
:1054F80041470D0037470D002D470D00394F0D006E
:105508000000000000000000A9470D00AB470D0097
:1055180066006C6E00666E00636F64650064657497
:1055280061696C000D0A00253031307520005D205E
:10553800002564002C200028293A2000205B006305
:105548006F6465203D200025690064657461696C9D
:1055580073203D2000626175640053657269616C57
:105568000053657269616C3100747970650070610F
:1055780072616D00636D6400696400686E64007335
:1055880074726D0066696C74006C766C006164649A
:1055980048616E646C65720072656D6F766548610E
:1055A8006E646C657200656E756D48616E646C65DD
:1055B8007273004A534F4E53747265616D4C6F6736
:1055C80048616E646C657200617070006E6F6E6524
:1055D80000747261636500696E666F007761726E50
:1055E800006572726F720070616E696300616C6C45
:1055F800005A00252B3033643A253032750025597E
:105608002D256D2D25645425483A254D3A255325D9
:105618007A0061736374696D650000000000000022
:1056280000000000F9490D00E9490D00EB490D00A3
:105638000000000000000000D14A0D00214B0D00C1
:105648002F4B0D0011480D000D4B0D00D34A0D00D6
:10565800E94A0D001B4B0D00FF4A0D00CD4A0D0015
:105668000000000000000000D54B0D00254C0D0087
:10567800334C0D0011480D00E94B0D000B4C0D008B
:10568800F74B0D001F4C0D00D74B0D00DB4B0D00E9
:105698000000000000000000D94C0D00234D0D0053
:1056A800FB4C0D00DB4C0D00034D0D000B4D0D00A8
:1056B800134D0D001B4D0D00000000000000000000
:1056C800BB4D0D00B14D0D00A74D0D009D4D0D00BA
:1056D800914D0D00854D0D00794D0D00714D0D005A
:1056E800674D0D005D4D0D00394F0D0000000000A5
:1056F80000000000B34E0D00A94E0D009F4E0D0096
:10570800554E0D00934E0D00874E0D007B4E0D003B
:10571800734E0D00694E0D005F4E0D00394F0D00A0
:105728000000000000000000D14E0D00DB4E0D000F
:10573800E54E0D00EF4E0D00F94E0D00054F0D0022
:10574800114F0D001D4F0D00254F0D002F4F0D005F
:10575800394F0D00000000000000000000000000AC
:105768000000000000000000000000000000000031
:105778000000000000000000000000000000000021
:105788000000000000000000000000000000000011
:105798000000000000000000000000000000000001
:1057A80000000000000000000000000000000000F1
:1057B8000000000000000000430000001D430D0031
:1057C80095470D00E9470D0001480D00C1480D003F
:1057D800D1480D00F9480D00094E0D00BD4E0D00D1
:1057E80005500D00B5500D007D510D0001520D0002
:0857F800C5520D0089530D009C
:105800001A560D000000000060570D0080570D0073
:10581000A0570D0000000000000000000000000084
:1058200000000000C0570D00000000000000000054
:105830000000000000000000000000000000000068
:105840000000000000000000000000000000000058
:105850000000000000000000000000000000000048
:085860000000000050E30320EA
:10586800FFFFFFFF00000102030405060708090AFD
:105878000B0C0D0E0F101112131415161718191AF8
:085888001B1C1D1E1F2028003F
:045890007856341200
:04000003D0004018D1
:00000001FF
